:020000040800F2
:10000000005000201D110008FD1A0008031B000805
:10001000091B00080F1B0008151B0008000000004A
:100020000000000000000000000000001B1B000892
:10003000271B000800000000331B00083F1B0008BE
:1000400065110008651100086511000865110008B8
:1000500065110008651100086511000865110008A8
:100060006511000865110008651100086511000898
:100070006511000865110008651100086511000888
:100080006511000865110008651100086511000878
:100090006511000865110008651100086511000868
:1000A0006511000865110008651100086511000858
:1000B0006511000865110008651100086511000848
:1000C0006511000865110008651100086511000838
:1000D00065110008651100084D1B00086511000836
:1000E0006511000865110008651100080000000096
:1000F0000000000000000000000000000000000000
:0C01000000000000000000005FF808F1A3
:1001100010B5054C237833B9044B13B10448AFF341
:1001200000800123237010BDE801002000000000C2
:10013000587B000808B5034B1BB103490348AFF3D4
:10014000008008BD00000000EC010020587B000882
:10015000034613F8012B002AFBD1181A0138704707
:1001600081F0004102E000BF83F0004330B54FEA68
:1001700041044FEA430594EA050F08BF90EA020FD5
:100180001FBF54EA000C55EA020C7FEA645C7FEA68
:10019000655C00F0E2804FEA5454D4EB5555B8BF8B
:1001A0006D420CDD2C4480EA020281EA030382EAFC
:1001B000000083EA010180EA020281EA0303362D8E
:1001C00088BF30BD11F0004F4FEA01314FF4801C61
:1001D0004CEA113102D0404261EB410113F0004F73
:1001E0004FEA03334CEA133302D0524263EB43032A
:1001F00094EA050F00F0A780A4F10104D5F1200EC8
:100200000DDB02FA0EFC22FA05F2801841F1000122
:1002100003FA0EF2801843FA05F359410EE0A5F1F6
:1002200020050EF1200E012A03FA0EFC28BF4CF027
:10023000020C43FA05F3C01851EBE37101F00045DD
:1002400007D54FF0000EDCF1000C7EEB00006EEBEA
:100250000101B1F5801F1BD3B1F5001F0CD3490874
:100260005FEA30004FEA3C0C04F101044FEA4452CB
:1002700012F5800F80F09A80BCF1004F08BF5FEA52
:10028000500C50F1000041EB045141EA050130BD32
:100290005FEA4C0C404141EB0101013C28BFB1F544
:1002A000801FE9D291F0000F04BF01460020B1FA8F
:1002B00081F308BF2033A3F10B03B3F120020CDA62
:1002C0000C3208DD02F1140CC2F10C0201FA0CF040
:1002D00021FA02F10CE002F11402D8BFC2F1200CA5
:1002E00001FA02F120FA0CFCDCBF41EA0C0190405B
:1002F000E41AA2BF01EB0451294330BD6FEA0404A4
:100300001F3C1CDA0C340EDC04F11404C4F120028E
:1003100020FA04F001FA02F340EA030021FA04F3A0
:1003200045EA030130BDC4F10C04C4F1200220FAF7
:1003300002F001FA04F340EA0300294630BD21FA35
:1003400004F0294630BD94F0000F83F4801306BFFB
:1003500081F480110134013D4EE77FEA645C18BFEF
:100360007FEA655C29D094EA050F08BF90EA020F86
:1003700005D054EA000C04BF1946104630BD91EA7E
:10038000030F1EBF0021002030BD5FEA545C05D181
:100390004000494128BF41F0004130BD14F58004C0
:1003A0003CBF01F5801130BD01F0004545F0FE4134
:1003B00041F470014FF0000030BD7FEA645C1ABF69
:1003C000194610467FEA655C1CBF0B46024650EAA0
:1003D000013406BF52EA033591EA030F41F40021CC
:1003E00030BD00BF90F0000F04BF0021704730B552
:1003F0004FF4806404F132044FF000054FF0000127
:1004000050E700BF90F0000F04BF0021704730B5E7
:100410004FF4806404F1320410F0004548BF4042BC
:100420004FF000013EE700BF42004FEAE2014FEA11
:1004300031014FEA02701FBF12F07F4393F07F4FEC
:1004400081F06051704732F07F4208BF704793F0EF
:100450007F4F04BF41F40021704730B54FF4607402
:1004600001F0004521F000411CE700BF50EA010205
:1004700008BF704730B54FF000050AE050EA0102AE
:1004800008BF704730B511F0004502D5404261EB1E
:1004900041014FF4806404F132045FEA915C3FF45F
:1004A000D8AE4FF003025FEADC0C18BF03325FEAFC
:1004B000DC0C18BF033202EBDC02C2F1200300FAAD
:1004C00003FC20FA02F001FA03FE40EA0E0021FAD2
:1004D00002F11444BDE600BF70B54FF0FF0C4CF4C0
:1004E000E06C1CEA11541DBF1CEA135594EA0C0F72
:1004F00095EA0C0F00F0DEF82C4481EA030621EAAD
:100500004C5123EA4C5350EA013518BF52EA0335E7
:1005100041F4801143F4801338D0A0FB02CE4FF099
:100520000005E1FB02E506F00042E0FB03E54FF0C9
:100530000006E1FB03569CF0000F18BF4EF0010EC1
:10054000A4F1FF04B6F5007F64F5407404D25FEABD
:100550004E0E6D4146EB060642EAC62141EA555170
:100560004FEAC52040EA5E504FEACE2EB4F1FD0CB2
:1005700088BFBCF5E06F1ED8BEF1004F08BF5FEA30
:10058000500E50F1000041EB045170BD06F00046E2
:1005900046EA010140EA020081EA0301B4EB5C048F
:1005A000C2BFD4EB0C0541EA045170BD41F4801187
:1005B0004FF0000E013C00F3AB8014F1360FDEBFAC
:1005C000002001F0004170BDC4F10004203C35DA88
:1005D0000C341BDC04F11404C4F1200500FA05F30B
:1005E00020FA04F001FA05F240EA020001F00042AC
:1005F00021F0004110EBD37021FA04F642EB060122
:100600005EEA430E08BF20EAD37070BDC4F10C044B
:10061000C4F1200500FA04F320FA05F001FA04F20F
:1006200040EA020001F0004110EBD37041F10001FB
:100630005EEA430E08BF20EAD37070BDC4F1200506
:1006400000FA05F24EEA020E20FA04F301FA05F26E
:1006500043EA020321FA04F001F0004121FA04F216
:1006600020EA020000EBD3705EEA430E08BF20EAE6
:10067000D37070BD94F0000F0FD101F00046400020
:1006800041EB010111F4801F08BF013CF7D041EAA2
:10069000060195F0000F18BF704703F000465200A6
:1006A00043EB030313F4801F08BF013DF7D043EA77
:1006B0000603704794EA0C0F0CEA135518BF95EA2D
:1006C0000C0F0CD050EA410618BF52EA4306D1D1B4
:1006D00081EA030101F000414FF0000070BD50EAD3
:1006E000410606BF1046194652EA430619D094EA5D
:1006F0000C0F02D150EA013613D195EA0C0F05D147
:1007000052EA03361CBF104619460AD181EA03019A
:1007100001F0004141F0FE4141F470014FF0000052
:1007200070BD41F0FE4141F4780170BD70B54FF0ED
:10073000FF0C4CF4E06C1CEA11541DBF1CEA13556D
:1007400094EA0C0F95EA0C0F00F0A7F8A4EB05044F
:1007500081EA030E52EA03354FEA013100F0888046
:100760004FEA03334FF0805545EA131343EA12630F
:100770004FEA022245EA111545EA10654FEA0026C4
:100780000EF000419D4208BF964244F1FD0404F57D
:10079000407402D25B084FEA3202B61A65EB0305D9
:1007A0005B084FEA32024FF480104FF4002CB6EB96
:1007B000020E75EB030E22BFB61A754640EA0C0016
:1007C0005B084FEA3202B6EB020E75EB030E22BF56
:1007D000B61A754640EA5C005B084FEA3202B6EB97
:1007E000020E75EB030E22BFB61A754640EA9C0056
:1007F0005B084FEA3202B6EB020E75EB030E22BF26
:10080000B61A754640EADC0055EA060E18D04FEAE3
:10081000051545EA16754FEA06164FEAC30343EA83
:1008200052734FEAC2025FEA1C1CC0D111F4801F50
:100830000BD141EA00014FF000004FF0004CB6E749
:1008400011F4801F04BF01430020B4F1FD0C88BFE8
:10085000BCF5E06F3FF6AFAEB5EB030C04BFB6EBF3
:10086000020C5FEA500C50F1000041EB045170BDE6
:100870000EF0004E4EEA113114EB5C04C2BFD4EB13
:100880000C0541EA045170BD41F480114FF0000E97
:10089000013C90E645EA060E8DE60CEA135594EA13
:1008A0000C0F08BF95EA0C0F3FF43BAF94EA0C0F16
:1008B0000AD150EA01347FF434AF95EA0C0F7FF48B
:1008C00025AF104619462CE795EA0C0F06D152EADF
:1008D00003353FF4FDAE1046194622E750EA4106C3
:1008E00018BF52EA43067FF4C5AE50EA41047FF4D4
:1008F0000DAF52EA43057FF4EBAE12E74FF0FF3C39
:1009000006E000BF4FF0010C02E000BF4FF0010C09
:100910004DF804CD4FEA410C7FEA6C5C4FEA430C82
:1009200018BF7FEA6C5C1BD001B050EA410C0CBFD1
:1009300052EA430C91EA030F02BF90EA020F002033
:10094000704710F1000F91EA030F58BF994208BF9A
:1009500090422CBFD8176FEAE37040F00100704757
:100960004FEA410C7FEA6C5C02D150EA013C07D1AE
:100970004FEA430C7FEA6C5CD6D152EA033CD3D0F9
:100980005DF8040B704700BF8446104662468C46F3
:100990001946634600E000BF01B5FFF7B7FF002826
:1009A00048BF10F1000F01BD4DF808EDFFF7F4FF4F
:1009B0000CBF012000205DF808FB00BF4DF808EDDA
:1009C000FFF7EAFF34BF012000205DF808FB00BFFD
:1009D0004DF808EDFFF7E0FF94BF012000205DF81F
:1009E00008FB00BF4DF808EDFFF7CEFF94BF0120D4
:1009F00000205DF808FB00BF4DF808EDFFF7C4FFCD
:100A000034BF012000205DF808FB00BF4FEA410C15
:100A10007FEA6C5C02D150EA013C0AD14FEA430CF8
:100A20007FEA6C5C02D152EA033C02D14FF0000035
:100A300070474FF0010070474FEA410212F5001273
:100A400015D211D56FF47873B3EB625212D94FEA15
:100A5000C12343F0004343EA505311F0004F23FAFF
:100A600002F018BF404270474FF00000704750EA54
:100A7000013005D111F0004008BF6FF00040704711
:100A80004FF00000704700BF4FEA4102B2F1E0436F
:100A900024BFB3F5001CDCF1FE5C0DD901F0004C65
:100AA0004FEAC0024CEA5070B2F1004F40EB8300B5
:100AB00008BF20F00100704711F0804F21D113F1E1
:100AC0003872BCBF01F00040704741F480114FEA1A
:100AD0005252C2F11802C2F1200C10FA0CF320FAA3
:100AE00002F018BF40F001004FEAC1234FEAD323C0
:100AF00003FA0CFC40EA0C0023FA02F34FEA43032A
:100B0000CCE77FEA625307D150EA01331EBF4FF0B2
:100B1000FE4040F44000704701F0004040F0FE40CD
:100B200040F40000704700BF80F0004002E000BFCA
:100B300081F0004142001FBF5FEA410392EA030FC8
:100B40007FEA226C7FEA236C6AD04FEA1262D2EB12
:100B50001363C1BFD218414048404140B8BF5B4217
:100B6000192B88BF704710F0004F40F4000020F0B0
:100B70007F4018BF404211F0004F41F4000121F0C6
:100B80007F4118BF494292EA030F3FD0A2F1010210
:100B900041FA03FC10EB0C00C3F1200301FA03F14E
:100BA00000F0004302D5494260EB4000B0F5000F71
:100BB00013D3B0F1807F06D340084FEA310102F130
:100BC0000102FE2A51D2B1F1004F40EBC25008BFE2
:100BD00020F0010040EA03007047490040EB0000AC
:100BE000013A28BFB0F5000FEDD2B0FA80FCACF1AD
:100BF000080CB2EB0C0200FA0CF0AABF00EBC250DA
:100C000052421843BCBFD0401843704792F0000FC7
:100C100081F4000106BF80F400000132013BB5E71A
:100C20004FEA41037FEA226C18BF7FEA236C21D090
:100C300092EA030F04D092F0000F08BF08467047F5
:100C400090EA010F1CBF0020704712F07F4F04D1C3
:100C5000400028BF40F00040704712F100723CBFD6
:100C600000F50000704700F0004343F0FE4040F400
:100C7000000070477FEA226216BF08467FEA2363BE
:100C80000146420206BF5FEA412390EA010F40F4A9
:100C9000800070474FF0000304E000BF10F00043F5
:100CA00048BF40425FEA000C08BF704743F09643DC
:100CB00001464FF000001CE050EA010208BF7047F7
:100CC0004FF000030AE000BF50EA010208BF70477E
:100CD00011F0004302D5404261EB41015FEA010C93
:100CE00002BF84460146002043F0B64308BFA3F18B
:100CF0008053A3F50003BCFA8CF2083AA3EBC2536D
:100D000010DB01FA02FC634400FA02FCC2F120028B
:100D1000BCF1004F20FA02F243EB020008BF20F0C2
:100D20000100704702F1200201FA02FCC2F1200228
:100D300050EA4C0021FA02F243EB020008BF20EA1D
:100D4000DC7070474FF0FF0C1CEAD0521EBF1CEA4B
:100D5000D15392EA0C0F93EA0C0F6FD01A4480EA39
:100D6000010C400218BF5FEA41211ED04FF0006322
:100D700043EA501043EA5111A0FB01310CF000404E
:100D8000B1F5000F3EBF490041EAD3715B0040EA74
:100D9000010062F17F02FD2A1DD8B3F1004F40EB44
:100DA000C25008BF20F00100704790F0000F0CF017
:100DB000004C08BF49024CEA502040EA51207F3ADB
:100DC000C2BFD2F1FF0340EAC250704740F40000B6
:100DD0004FF00003013A5DDC12F1190FDCBF00F0A7
:100DE00000407047C2F10002410021FA02F1C2F155
:100DF000200200FA02FC5FEA310040F1000053EAF1
:100E00004C0308BF20EADC70704792F0000F00F03E
:100E1000004C02BF400010F4000F013AF9D040EA44
:100E20000C0093F0000F01F0004C02BF490011F4D8
:100E3000000F013BF9D041EA0C018FE70CEAD153D6
:100E400092EA0C0F18BF93EA0C0F0AD030F0004C56
:100E500018BF31F0004CD8D180EA010000F000400A
:100E6000704790F0000F17BF90F0004F084691F0C8
:100E7000000F91F0004F14D092EA0C0F01D1420202
:100E80000FD193EA0C0F03D14B0218BF084608D1CB
:100E900080EA010000F0004040F0FE4040F4000015
:100EA000704740F0FE4040F4400070474FF0FF0CA8
:100EB0001CEAD0521EBF1CEAD15392EA0C0F93EAEF
:100EC0000C0F69D0A2EB030280EA010C49024FEA41
:100ED000402037D04FF0805343EA111143EA1013FA
:100EE0000CF000408B4238BF5B0042F17D024FF4B2
:100EF000000C8B4224BF5B1A40EA0C00B3EB510F8D
:100F000024BFA3EB510340EA5C00B3EB910F24BF75
:100F1000A3EB910340EA9C00B3EBD10F24BFA3EBFA
:100F2000D10340EADC001B0118BF5FEA1C1CE0D1C2
:100F3000FD2A3FF650AF8B4240EBC25008BF20F075
:100F4000010070470CF0004C4CEA50207F32C2BFC9
:100F5000D2F1FF0340EAC250704740F400004FF066
:100F60000003013A37E792F0000F00F0004C02BF97
:100F7000400010F4000F013AF9D040EA0C0093F061
:100F8000000F01F0004C02BF490011F4000F013BBB
:100F9000F9D041EA0C0195E70CEAD15392EA0C0F23
:100FA00008D142027FF47DAF93EA0C0F7FF470AF5B
:100FB000084676E793EA0C0F04D14B023FF44CAF9E
:100FC00008466EE730F0004C18BF31F0004CCAD133
:100FD00030F000427FF45CAF31F000437FF43CAF6F
:100FE0005FE700BF4FF0FF3C06E000BF4FF0010C91
:100FF00002E000BF4FF0010C4DF804CD4FEA400273
:101000004FEA41037FEA226C18BF7FEA236C11D0BC
:1010100001B052EA530C18BF90EA010F58BFB2EB6F
:10102000030088BFC81738BF6FEAE17018BF40F0EF
:10103000010070477FEA226C02D15FEA402C05D1A3
:101040007FEA236CE4D15FEA412CE1D05DF8040B28
:10105000704700BF844608466146FFE70FB5FFF7BB
:10106000C9FF002848BF10F1000F0FBD4DF808ED73
:10107000FFF7F4FF0CBF012000205DF808FB00BF64
:101080004DF808EDFFF7EAFF34BF012000205DF8BE
:1010900008FB00BF4DF808EDFFF7E0FF94BF01200B
:1010A00000205DF808FB00BF4DF808EDFFF7D2FF08
:1010B00094BF012000205DF808FB00BF4DF808ED4B
:1010C000FFF7C8FF34BF012000205DF808FB00BF18
:1010D0004FEA4002B2F1FE4F0FD34FF09E03B3EB45
:1010E00012620DD94FEA002343F0004310F0004F85
:1010F00023FA02F018BF404270474FF000007047DB
:1011000012F1610F01D1420205D110F0004008BF79
:101110006FF0004070474FF0000070470C480D49D9
:101120000D4A002302E0D458C4500433C4188C4242
:10113000F9D30A4A0A4C002301E013600432A242A8
:10114000FBD300F0CDFD03F001FE00F077FA70470D
:1011500000000020E80100200C800008E8010020C9
:101160002C030020FEE7000080B588B000AF07F137
:10117000100300221A605A609A60DA60454B9B693E
:10118000444A43F010039361424B9B6903F0100300
:10119000FB60FB683F4B9B693E4A43F02003936131
:1011A0003C4B9B6903F02003BB60BB68394B9B69D8
:1011B000384A43F004039361364B9B6903F0040300
:1011C0007B607B68334B9B69324A43F00803936131
:1011D000304B9B6903F008033B603B6800224FF4EF
:1011E00000512D4801F099FC00224CF640412B485B
:1011F00001F093FC00224FF48071294801F08DFC2E
:101200004FF400533B6101237B610023BB61022348
:10121000FB6107F1100319461F4801F0E3FA1B2395
:101220003B6100237B610023BB6107F1100319467A
:101230001A4801F0D7FA4CF640433B6101237B6129
:101240000023BB610223FB6107F110031946134819
:1012500001F0C8FA4FF480733B6101237B610023E6
:10126000BB610223FB6107F1100319460C4801F032
:10127000B9FA4FF400433B6100237B610023BB615B
:1012800007F110031946064801F0ACFA00BF2037F9
:10129000BD4680BD0010024000100140000C01401E
:1012A0000008014080B500AF124B134A1A60114B81
:1012B000124A5A600F4B00229A600E4B0022DA60ED
:1012C0000C4B4FF480421A610A4B00225A61094BC1
:1012D00000229A61074B0022DA61064B00221A6253
:1012E000044801F04BFC0346002B01D000F0CFFB7B
:1012F00000BF80BD0402002000540040A086010011
:1013000080B58AB000AF786007F1140300221A603C
:101310005A609A60DA607B681B681D4A934232D13A
:101320001C4B9B691B4A43F008039361194B9B6953
:1013300003F008033B613B694FF440737B61122368
:10134000BB6103233B6207F114031946124801F005
:1013500049FA124B5B687B627B6A43F0E0637B6215
:101360007B6A43F002037B620C4A7B6A5360094B41
:10137000DB69084A43F40013D361064BDB6903F4CD
:101380000013FB60FB6800BF2837BD4680BD00BF6F
:101390000054004000100240000C014000000140D9
:1013A00080B582B000AF786039E07B68013B7B603C
:1013B000012001F035F802211D4801F097FB03469A
:1013C000002B09D101224FF48041194801F0A5FBFF
:1013D000322001F025F805E000224FF48041144846
:1013E00001F09BFB0121124801F080FB0346002B1A
:1013F00019D04FF400410F4801F078FB0346002B51
:1014000012D108210A4801F071FB0346002B0BD1D1
:101410001021074801F06AFB0346002B04D17B68CA
:10142000002BC2DC00E000BF00BF0837BD4680BD16
:10143000000C01400008014080B584B000AF786026
:1014400033497868FFF77EFC0346FB6001220121E7
:10145000304800F0F5FD4FF4FA6000F0E1FFF86865
:10146000FFF736FE03462C4A82FB03129211DB176C
:10147000D21A2A4B83FB02139910D317C81A0346BA
:101480009B0003445B00D01A4FF4966100F04AF8C9
:10149000F868FFF71DFE0346214A82FB0312521132
:1014A000DB17D21A1D4B83FB02139910D317C81AEE
:1014B00003469B0003445B00D01A4FF47A7100F09E
:1014C00031F800220121134800F0BAFD4FF47A7080
:1014D00000F0A6FFF868FFF7FBFD03460F4A82FB0A
:1014E00003129210DB17D21A0C4B83FB02139910D4
:1014F000D317C81A03469B0003445B00D01A4FF46D
:101500007A7100F00FF800BF1037BD4680BD00BFF4
:101510000000C84278020020D34D621067666666FC
:101520001F85EB5180B582B000AF786039607B6871
:10153000092B7BD801A252F823F000BF65150008E3
:10154000791500088D150008A1150008B5150008CB
:10155000C9150008DD150008F1150008051600087A
:101560001916000800220021334800F069FD3B688D
:10157000184600F055FF5AE0012200212E4800F0E5
:101580005FFD3B68184600F04BFF50E0022200214F
:10159000294800F055FD3B68184600F041FF46E041
:1015A00003220021244800F04BFD3B68184600F060
:1015B00037FF3CE0042200211F4800F041FD3B685A
:1015C000184600F02DFF32E0052200211A4800F0F5
:1015D00037FD3B68184600F023FF28E00622002173
:1015E000154800F02DFD3B68184600F019FF1EE07D
:1015F00007220021104800F023FD3B68184600F048
:101600000FFF14E0082200210B4800F019FD3B6891
:10161000184600F005FF0AE009220021064800F004
:101620000FFD3B68184600F0FBFE00E000BF00BF66
:101630000837BD4680BD00BF7802002080B584B069
:1016400000AF00F08BFE00F0E1F9FFF78DFDFFF732
:1016500029FE00F04BFB00F073FB00224021BC4848
:1016600001F05BFA00224FF48071BA4801F055FA9C
:1016700000224FF40041B64801F04FFA00224FF427
:101680008041B34801F049FA4FF4FA6000F0C8FE17
:1016900000F0C8FD642000F0C3FE0023FB600023BF
:1016A0007B602423BB6000F000FEAB4A01210120D7
:1016B00000F03EFEA949AA4800F088FC1E21A84877
:1016C00000F0A6FC4FF4FA7000F0AAFE00F0EDFD69
:1016D00000F0C9FC02460B4610461946FFF7D4F944
:1016E0000346A04A13609F4B1B681846FEF79CFEFA
:1016F00002460B469C499D4803F0B4FF9B4A0121DA
:10170000012000F015FEFA689949984803F0AAFFF5
:10171000964A0121022000F00BFE01218C4801F0C5
:10172000E5F90346002B40F0B180642000F078FE1C
:101730008C4B1B681846FEF777FE02460B468A491B
:101740008A4803F08FFF894A0121012000F0F0FD53
:10175000FB680133FB60FA688549844803F082FF27
:10176000824A0121022000F0E3FD7E4B1B681846EF
:10177000FFF762FEB868FFF791FA0246794B1B68E3
:1017800019461046FFF786FC0346002B0CD000F0EC
:101790008CFD784A0221012000F0CAFD764A06211C
:1017A000022000F0C5FD0BE000F07FFD734A02212E
:1017B000012000F0BDFD724A0621022000F0B8FDB4
:1017C00040F6B83000F02CFE00F06FFD6D4A0321AA
:1017D000012000F0ADFD6C4A0621022000F0A8FDBA
:1017E000022201215E4800F02BFC4FF4966000F0CD
:1017F00017FE01224FF40041554801F08EF942F6E0
:10180000E06000F00DFE00224FF40041504801F06E
:1018100084F900F04AFD5D4A0321012000F088FDB3
:101820005B4A0721022000F083FD032201214C487E
:1018300000F006FC4FF4966000F0F2FD40F6B83080
:1018400000F0EEFD00BF0121414801F04FF90346D1
:10185000002BF8D000F029FD424B1B681846FEF71C
:10186000E3FD02460B464049404803F0FBFE3F4A79
:101870000121012000F05CFDFA683D493B4803F07E
:10188000F1FE3A4A0121022000F052FD08213048C1
:1018900001F02CF90346002B00F0A38000F005FDB9
:1018A000BA683C49314803F0DDFE304A012101208D
:1018B00000F03EFD00BF0821254801F017F903465E
:1018C000002BF8D11021224801F010F90346002B1B
:1018D00015D0BB685A1CBA601A462E49234803F03B
:1018E000C1FE224A0121012000F022FD00BF10218B
:1018F000174801F0FBF80346002BF8D11DE04FF428
:101900000041144801F0F2F80346002B15D0BB68E3
:101910005A1EBA601A461F49144803F0A3FE134A20
:101920000121012000F004FD00BF4FF400410948EF
:1019300001F0DCF80346002BF7D10A2000F070FD1F
:101940000821034801F0D2F80346002B24D1B9E75F
:10195000000C014000080140707B0008D402002008
:101960007802002088020020807B000858020020B6
:101970008C7B0008987B0008A87B0008B07B0008DF
:10198000C07B0008C87B0008D47B0008DC7B000813
:10199000EC7B0008F47B000800BF00F086FC164BCF
:1019A0001B681846FEF740FD02460B4613491448D3
:1019B00003F058FE124A0121012000F0B9FCFA6838
:1019C00010490F4803F04EFE0D4A0121022000F09D
:1019D000AFFC00BF08210C4801F088F80346002B3B
:1019E000F8D14FF47A70FFF7DBFC4FF40051064852
:1019F00001F0ABF86CE600BF88020020807B000895
:101A0000580200208C7B0008000C014080B590B08B
:101A100000AF07F1180328220021184603F0BAF995
:101A20003B1D00221A605A609A60DA601A61022334
:101A3000BB610123BB621023FB6202237B63002393
:101A4000BB634FF42013FB6307F11803184602F041
:101A500085F80346002B01D000F019F80F237B60B6
:101A60000223BB600023FB604FF480633B610023D3
:101A70007B613B1D0121184602F0F2FA0346002B60
:101A800001D000F004F800BF4037BD4680BD80B4EF
:101A900000AF72B600BFFEE780B485B000AF154B53
:101AA0009B69144A43F001039361124B9B6903F055
:101AB0000103BB60BB680F4BDB690E4A43F08053E8
:101AC000D3610C4BDB6903F080537B607B680A4B6E
:101AD0005B68FB60FB6823F0E063FB60FB6843F03E
:101AE0000073FB60044AFB68536000BF1437BD46B7
:101AF00080BC7047001002400000014080B400AF7D
:101B0000FEE780B400AFFEE780B400AFFEE780B42C
:101B100000AFFEE780B400AFFEE780B400AF00BFC7
:101B2000BD4680BC704780B400AF00BFBD4680BCDE
:101B3000704780B400AF00BFBD4680BC704780B521
:101B400000AF00F051FC00BF80BD000080B500AFC9
:101B5000024802F0FDFC00BF80BD00BFD40200209F
:101B600080B400AF01231846BD4680BC704780B5E5
:101B700082B000AF7860396003F0E2F803461622C5
:101B80001A604FF0FF3318460837BD4680BD80B558
:101B900082B000AF78604FF0FF317868FFF7E7FF61
:101BA000FEE780B586B000AFF860B9607A600023C8
:101BB0007B610AE0AFF300800146BB685A1CBA6043
:101BC000CAB21A707B6901337B617A697B689A4279
:101BD000F0DB7B6818461837BD4680BD80B586B0FF
:101BE00000AFF860B9607A6000237B6109E0BB68F0
:101BF0005A1CBA601B781846AFF300807B6901332A
:101C00007B617A697B689A42F1DB7B6818461837FA
:101C1000BD4680BD80B483B000AF78604FF0FF3325
:101C200018460C37BD4680BC704780B483B000AF07
:101C3000786039603B684FF400525A6000231846C0
:101C40000C37BD4680BC704780B483B000AF78606D
:101C5000012318460C37BD4680BC704780B485B060
:101C600000AFF860B9607A60002318461437BD46AB
:101C700080BC704780B586B000AF7860144A154BC1
:101C8000D31A7B617B693B61134B1B68002B02D12C
:101C9000114B124A1A60104B1A687B6813443A6958
:101CA0009A4207D203F04CF803460C221A604FF018
:101CB000FF3309E0084B1B68FB60074B1A687B6821
:101CC0001344054A1360FB6818461837BD4680BDAB
:101CD00000500020000400008C020020300300208F
:101CE00080B400AF00BFBD4680BC704780B500AF78
:101CF000114B124A1A60104B4FF4E1325A600E4BEE
:101D000000229A600C4B0022DA600B4B00221A6111
:101D1000094B0C225A61084B00229A61064B0022A3
:101D2000DA61054802F034FB0346002B01D0FFF7CF
:101D3000AEFE00BF80BD00BF900200200038014011
:101D400080B500AF114B124A1A60104B4FF4165277
:101D50005A600E4B00229A600C4B0022DA600B4B4B
:101D600000221A61094B0C225A61084B00229A6129
:101D7000064B0022DA61054802F00AFB0346002BFD
:101D800001D0FFF784FE00BF80BD00BFD402002059
:101D90000044004080B58AB000AF786007F11803B6
:101DA00000221A605A609A60DA607B681B683B4ABE
:101DB000934232D13A4B9B69394A43F48043936151
:101DC000374B9B6903F480437B617B69344B9B6990
:101DD000334A43F004039361314B9B6903F00403DE
:101DE0003B613B694FF40073BB610223FB6103233A
:101DF0007B6207F1180319462A4800F0F3FC4FF400
:101E00008063BB610023FB6100233B6207F1180381
:101E10001946244800F0E6FC3CE07B681B68224A37
:101E2000934237D11E4BDB691D4A43F40033D36123
:101E30001B4BDB6903F40033FB60FB68184B9B69A9
:101E4000174A43F004039361154B9B6903F00403A5
:101E5000BB60BB680423BB610223FB6103237B627D
:101E600007F1180319460F4800F0BCFC0823BB61BA
:101E70000023FB6100233B6207F118031946094860
:101E800000F0B0FC00220021262000F0C4FB262038
:101E900000F0DDFB00BF2837BD4680BD00380140A3
:101EA00000100240000801400044004080B582B0AC
:101EB00000AF78607B6818687B68191D4FF47A73EF
:101EC0000A2202F0B2FA00BF0837BD4680BD80B5D5
:101ED00082B000AF0346FB80FB88184600F0A0FAF2
:101EE00000BF0837BD4680BD80B485B000AF7860C4
:101EF0000023FB810123BB600AE0BB687A681344BE
:101F00001B789AB2FB891344FB81BB680133BB6029
:101F1000BB68062BF1DDFB895B429BB21846143788
:101F2000BD4680BC704780B483B000AF78600B467C
:101F30007B807B881B0A9BB2DAB27B681A707B6855
:101F400001337A88D2B21A7000BF0C37BD4680BC0C
:101F5000704780B584B000AF78607B680433184662
:101F6000FFF7C2FF0346FB817B6804330733FA891E
:101F700011461846FFF7D7FF00BF1037BD4680BD9A
:101F800080B584B000AFF860084611461A46034693
:101F9000FB720B463B811346FB806420FFF797FFE3
:101FA000FB68FA7ADA713B89DAB2FB685A72FB880D
:101FB000DAB2FB689A72F868FFF7CBFFF868FFF7B0
:101FC00075FF00BF1037BD4680BD000080B485B0EE
:101FD00000AF786039600023FB600CE00B4AFB68BF
:101FE000134419787A68FB68134404330A461A705C
:101FF000FB680133FB60FB68092BEFDD7B683A6807
:102000001A6000BF1437BD4680BC70470400002032
:1020100080B584B000AF78600B467B807B881B0A5C
:102020009BB2FB737B88BB73FB7B9AB2BB7B9BB27F
:1020300006217868FFF7A4FF00BF1037BD4680BDBA
:1020400080B584B000AFF8600B467A60FB72FB7A13
:102050009AB27B689BB20F21F868FFF791FF00BF2F
:102060001037BD4680BD80B500AF072000F00CF8EA
:1020700003461846FEF7D8F902460B4610461946A5
:1020800080BD00000000000080B584B000AF0346B2
:10209000FB71FB79184600F03FF803461846FEF73F
:1020A000F9FD0346FB604FF00001F868FEF7DEFF24
:1020B0000346002B02D04FF0000320E0F868FEF743
:1020C000B3F911A3D3E90023FEF706FA02460B4643
:1020D00010461946FEF7D8FC0346FB60F868FEF789
:1020E000A3F90BA3D3E90023FEF73EF802460B4603
:1020F00010461946FEF7C8FC0346FB60FB6818460D
:102100001037BD4680BD00BF7B14AE47E17A943FD7
:10211000666666666612714080B588B004AF034695
:10212000FB71FB793B73FB793B72FB799AB24FF4FD
:102130007A7302930223019307F10C0300930123A6
:10214000B421064800F05CFF3B7B1A467B7B1B02F8
:10215000134318461037BD4680BD00BF040200205F
:1021600080B586B002AF0346FB71FB7923F00F0305
:10217000FB73FB791B01BB73FB7B43F00C03DBB2EE
:102180003B72FB7B43F00803DBB27B72BB7B43F00B
:102190000C03DBB2BB72BB7B43F00803DBB2FB7208
:1021A00007F108026423009304234E21044800F041
:1021B00029FE012000F034F900BF1037BD4680BD74
:1021C0000402002080B586B002AF0346FB71FB79A4
:1021D00023F00F03FB73FB791B01BB73FB7B43F005
:1021E0000D03DBB23B72FB7B43F00903DBB27B7276
:1021F000BB7B43F00D03DBB2BB72BB7B43F0090337
:10220000DBB2FB7207F108026423009304234E2122
:10221000034800F0F7FD00BF1037BD4680BD00BF8A
:102220000402002080B500AF3320FFF799FF322071
:10223000FFF796FF322000F0F3F82820FFF790FF19
:10224000322000F0EDF80120FFF78AFF462000F071
:10225000E7F80620FFF784FF322000F0E1F80C20B9
:10226000FFF77EFF322000F0DBF80220FFF778FF57
:10227000322000F0D5F88020FFF772FF00BF80BD4C
:1022800080B582B000AF786006E07B685A1C7A6047
:102290001B781846FFF796FF7B681B78002BF4D15C
:1022A00000BF00BF0837BD4680BD80B500AF01202C
:1022B000FFF756FF00BF80BD80B584B000AF7860E7
:1022C00039607B68012B08D17B68DAB23B68DBB2EE
:1022D0001344DBB27F33FB7322E07B68022B09D10E
:1022E0003B68DBB24033DBB25BB263F07F035BB2CF
:1022F000FB7315E07B68032B09D13B68DBB2143319
:10230000DBB25BB263F07F035BB2FB7308E03B6858
:10231000DBB25433DBB25BB263F07F035BB2FB73BF
:10232000FB7B1846FFF71CFF00BF1037BD4680BD82
:1023300080B582B000AF03463A60FB710B46BB71BB
:10234000FA79BB79013B19461046FFF7B5FF3868AB
:10235000FFF796FF00BF0837BD4680BD80B500AFD0
:10236000084B1B68074A43F010031360032000F07A
:1023700047F90F2000F008F8FFF78EFB00231846FE
:1023800080BD00BF0020024080B582B000AF786001
:10239000124B1A68124B1B7819464FF47A73B3FB31
:1023A000F1F3B2FBF3F3184600F05FF90346002B9C
:1023B00001D001230EE07B680F2B0AD80022796838
:1023C0004FF0FF3000F027F9064A7B6813600023C6
:1023D00000E0012318460837BD4680BD00000020FC
:1023E000140000201000002080B400AF054B1B78C3
:1023F0001A46054B1B681344034A136000BFBD46D1
:1024000080BC7047140000201803002080B400AF87
:10241000024B1B681846BD4680BC7047180300205D
:1024200080B584B000AF7860FFF7F0FFB8607B68DC
:10243000FB60FB68B3F1FF3F05D00A4B1B781A46DF
:10244000FB681344FB6000BFFFF7E0FF0246BB6878
:10245000D31AFA689A42F7D800BF00BF1037BD46BA
:1024600080BD00BF1400002080B485B000AF78604C
:102470007B6803F00703FB600C4BDB68BB60BA684A
:102480004FF6FF031340BB60FB681A02BB6813439F
:1024900043F0BF6343F40033BB60044ABB68D360BE
:1024A00000BF1437BD4680BC704700BF00ED00E0A0
:1024B00080B400AF044BDB681B0A03F00703184627
:1024C000BD4680BC704700BF00ED00E080B483B023
:1024D00000AF0346FB7197F90730002B0BDBFB794C
:1024E00003F01F02064997F907305B09012000FA43
:1024F00002F241F8232000BF0C37BD4680BC704774
:1025000000E100E080B483B000AF03463960FB71A6
:1025100097F90730002B0ADB3B68DAB20C4997F9D0
:1025200007301201D2B20B4483F800230AE03B6863
:10253000DAB20849FB7903F00F03043B1201D2B26F
:102540000B441A7600BF0C37BD4680BC704700BFF5
:1025500000E100E000ED00E080B489B000AFF86079
:10256000B9607A60FB6803F00703FB61FB69C3F1A4
:102570000703042B28BF0423BB61FB690433062B2C
:1025800002D9FB69033B00E000237B614FF0FF327F
:10259000BB6902FA03F3DA43BB681A407B699A40CD
:1025A0004FF0FF317B6901FA03F3D9437B680B409D
:1025B000134318462437BD4680BC704780B582B0AF
:1025C00000AF78607B68013BB3F1807F01D30123CA
:1025D0000FE00A4A7B68013B53600F214FF0FF3048
:1025E000FFF790FF054B00229A60044B07221A6008
:1025F000002318460837BD4680BD00BF10E000E04C
:1026000080B582B000AF78607868FFF72DFF00BF1B
:102610000837BD4680BD80B586B000AF0346B960BF
:102620007A60FB7300237B61FFF742FF78617A6871
:10263000B9687869FFF790FF024697F90F301146A5
:102640001846FFF75FFF00BF1837BD4680BD80B555
:1026500082B000AF0346FB7197F907301846FFF7C9
:1026600035FF00BF0837BD4680BD80B582B000AFE2
:1026700078607868FFF7A2FF034618460837BD4622
:1026800080BD80B485B000AF78600023FB737B68A9
:1026900093F82130022B08D07B6804229A637B6870
:1026A000002283F82020012320E07B681B681A6841
:1026B0007B681B6822F00E021A607B681B681A6830
:1026C0007B681B6822F001021A607B681A6C7B68C9
:1026D000DB6B012101FA02F25A607B68012283F868
:1026E00021207B68002283F82020FB7B18461437CA
:1026F000BD4680BC7047000080B584B000AF7860F4
:102700000023FB737B6893F82130022B05D07B6894
:1027100004229A630123FB7351E07B681B681A68EB
:102720007B681B6822F00E021A607B681B681A68BF
:102730007B681B6822F001021A607B681B68224AD2
:10274000934229D07B681B68204A934222D07B6841
:102750001B681F4A93421AD07B681B681D4A93422C
:1027600012D07B681B681C4A93420AD07B681B68A6
:102770001A4A934202D14FF480130EE04FF0807357
:102780000BE04FF4803308E04FF4805305E04FF442
:10279000807302E0102300E00123114A53607B683C
:1027A000012283F821207B68002283F820207B68A7
:1027B0005B6B002B03D07B685B6B78689847FB7B77
:1027C00018461037BD4680BD080002401C0002407C
:1027D0003000024044000240580002406C000240B9
:1027E0000000024080B48BB000AF786039600023F5
:1027F0007B6200233B6269E101227B6A02FA03F3F8
:10280000FB613B681B68FA691340BB61BA69FB69ED
:102810009A4240F058813B685B689A4A93425ED086
:10282000984A934275D8984A934258D0964A934210
:102830006FD8964A934252D0944A934269D8944AA8
:1028400093424CD0924A934263D8924A934246D0E4
:10285000904A93425DD8122B2AD8122B59D801A244
:1028600052F823F0DF280008B9280008CB28000818
:102870000D2900081329000813290008132900084E
:102880001329000813290008132900081329000838
:102890001329000813290008132900081329000828
:1028A0001329000813290008C1280008D5280008AA
:1028B000794A934213D02CE03B68DB683B6229E005
:1028C0003B68DB6804333B6224E03B68DB68083329
:1028D0003B621FE03B68DB680C333B621AE03B68FD
:1028E0009B68002B02D104233B6213E03B689B688A
:1028F000012B05D108233B627B68FA691A6109E064
:1029000008233B627B68FA695A6103E000233B625B
:1029100000E000BFBB69FF2B01D87B6801E07B684A
:1029200004337B61BB69FF2B02D87B6A9B0002E00A
:102930007B6A083B9B003B617B691A680F213B69FE
:1029400001FA03F3DB431A40396A3B6901FA03F3E6
:102950001A437B691A603B685B6803F08053002B65
:1029600000F0B1804D4B9B694C4A43F001039361E9
:102970004A4B9B6903F00103BB60BB68484A7B6A12
:102980009B08023352F82330FB607B6A03F0030399
:102990009B000F2202FA03F3DB43FA681340FB604B
:1029A0007B68404A934213D07B683F4A93420DD0E4
:1029B0007B683E4A934207D07B683D4A934201D1EF
:1029C000032306E0042304E0022302E0012300E0E5
:1029D00000237A6A02F0030292009340FA681343DC
:1029E000FB602F497B6A9B080233FA6841F8232079
:1029F0003B685B6803F48033002B06D02D4B1A68CC
:102A00002C49BB6913430B6006E02A4B1A68BB696B
:102A1000DB43284913400B603B685B6803F40033D9
:102A2000002B06D0234B5A682249BB6913434B60E5
:102A300006E0204B5A68BB69DB431E4913404B60DC
:102A40003B685B6803F48013002B06D0194B9A682F
:102A50001849BB6913438B6006E0164B9A68BB6943
:102A6000DB43144913408B603B685B6803F400133D
:102A7000002B21D00F4BDA680E49BB691343CB60A2
:102A800021E000BF000032100000311000002210D1
:102A90000000211000001210000011100010024070
:102AA0000000014000080140000C014000100140FE
:102AB00000140140000401400B4BDA68BB69DB43A2
:102AC00009491340CB607B6A01337B623B681A681B
:102AD0007B6A22FA03F3002B7FF48EAE00BF00BFA7
:102AE0002C37BD4680BC70470004014080B485B0DF
:102AF00000AF78600B467B807B689A687B881340C8
:102B0000002B02D00123FB7301E00023FB73FB7B4E
:102B100018461437BD4680BC704780B483B000AF00
:102B200078600B467B8013467B707B78002B03D04C
:102B30007A887B681A6103E07B881A047B681A61D3
:102B400000BF0C37BD4680BC704780B485B000AF75
:102B500078600B467B807B68DB68FB607A88FB686B
:102B600013401A04FB68D9437B880B401A437B68E7
:102B70001A6100BF1437BD4680BC704780B584B071
:102B800000AF78607B68002B01D101232BE17B68CB
:102B900093F83D30DBB2002B06D17B68002283F82E
:102BA0003C207868FEF7ACFB7B68242283F83D204C
:102BB0007B681B681A687B681B6822F001021A6038
:102BC0007B681B681A687B681B6842F400421A60C5
:102BD0007B681B681A687B681B6822F400421A60D5
:102BE00001F090FBF8607B685B68814A934207D8EC
:102BF000FB68804A934294BF01230023DBB206E0C6
:102C0000FB687D4A934294BF01230023DBB2002B73
:102C100001D00123E7E0FB68784AA2FB03239B0C69
:102C2000BB607B681B685B6823F03F017B681B68A7
:102C3000BA680A435A607B681B681B6A23F03F012D
:102C40007B685B686A4A934202D8BB68013309E03B
:102C5000BB684FF4967202FB03F3694AA2FB03239D
:102C60009B0901337A6812680B4313627B681B6807
:102C7000DB6923F44F4222F0FF027B685B685C490A
:102C80008B4219D8FB68591E7B685B685B00B1FBFF
:102C9000F3F3591C40F6FC730B40002B0AD0FB6881
:102CA000591E7B685B685B00B1FBF3F30133C3F330
:102CB0000B0351E004234FE07B689B68002B11D18C
:102CC000FB68581E7B6859680B465B000B44B0FBE1
:102CD000F3F30133C3F30B03002B0CBF01230023D9
:102CE000DBB212E0FB68581E7B6859680B469B00FC
:102CF0000B4499000B44B0FBF3F30133C3F30B0314
:102D0000002B0CBF01230023DBB2002B01D00123D9
:102D100022E07B689B68002B0ED1FB68581E7B6805
:102D200059680B465B000B44B0FBF3F30133C3F36C
:102D30000B0343F400430FE0FB68581E7B6859689F
:102D40000B469B000B4499000B44B0FBF3F301339B
:102D5000C3F30B0343F44043796809681343CB6121
:102D60007B681B681B6823F0C0017B68DA697B689D
:102D70001B6A1A437B681B680A431A607B681B68DE
:102D80009B6823F4034323F0FF037A6811697A6890
:102D9000D26811437A6812680B4393607B681B68A2
:102DA000DB6823F0FF017B685A697B689B691A43E3
:102DB0007B681B680A43DA607B681B681A687B685B
:102DC0001B6842F001021A607B6800221A647B686B
:102DD000202283F83D207B6800221A637B68002252
:102DE00083F83E20002318461037BD4680BD00BF43
:102DF000A08601007F841E00FF083D0083DE1B4388
:102E0000D34D621080B588B002AFF8607A601A4680
:102E10000B467B8113463B81FFF7F8FA7861FB682C
:102E200093F83D30DBB2202B40F0E0807B690093CB
:102E3000192301227049F86800F0B4FC0346002B06
:102E400001D00223D3E0FB6893F83C30012B01D181
:102E50000223CCE0FB68012283F83C20FB681B685E
:102E60001B6803F00103012B07D0FB681B681A687D
:102E7000FB681B6842F001021A60FB681B681A6855
:102E8000FB681B6822F400621A60FB68212283F849
:102E90003D20FB68102283F83E20FB6800221A6464
:102EA000FB687A685A62FB683A895A85FB685B8DD1
:102EB0009AB2FB681A85FB68504ADA6279897B69A5
:102EC0003A6AF86800F004FB0346002B01D00123A6
:102ED0008DE000233B61FB681B685B693B61FB681D
:102EE0001B689B693B613B6966E07A69396AF868EF
:102EF00000F02EFD0346002B0DD0FB681B6C042B4D
:102F000007D1FB681B681A68FB681B6842F40072F3
:102F10001A6001236BE0FB685B6A1A78FB681B6828
:102F20001A61FB685B6A5A1CFB685A62FB685B8D1E
:102F30009BB2013B9AB2FB685A85FB681B8D013B33
:102F40009AB2FB681A85FB681B685B6903F004038F
:102F5000042B1BD1FB681B8D002B17D0FB685B6A11
:102F60001A78FB681B681A61FB685B6A5A1CFB686D
:102F70005A62FB685B8D9BB2013B9AB2FB685A8533
:102F8000FB681B8D013B9AB2FB681A857A69396A26
:102F9000F86800F01EFD0346002B0DD0FB681B6C8B
:102FA000042B07D1FB681B681A68FB681B6842F496
:102FB00000721A6001231AE0FB681B8D002B94D16C
:102FC000FB681B681A68FB681B6842F400721A6091
:102FD000FB68202283F83D20FB68002283F83E2016
:102FE000FB68002283F83C20002300E002231846FF
:102FF0001837BD4680BD00BF020010000000FFFF73
:1030000080B58CB002AFF860084611461A460346F8
:103010007B810B463B811346FB8000233B62FFF71D
:10302000F5F97862FB6893F83D30DBB2202B40F075
:1030300044827B6A0093192301228249F86800F0D8
:10304000B1FB0346002B01D0022337E2FB6893F863
:103050003C30012B01D1022330E2FB68012283F8CE
:103060003C20FB681B681B6803F00103012B07D0A1
:10307000FB681B681A68FB681B6842F001021A6053
:10308000FB681B681A68FB681B6822F400621A6000
:10309000FB68222283F83D20FB68402283F83E2013
:1030A000FB6800221A64FB683A6B5A62FB68BA8EAE
:1030B0005A85FB685B8D9AB2FB681A85FB68624A89
:1030C000DA62F8883A8979897B6A0193BB6B00934D
:1030D0000346F86800F07EFA0346002B01D0012376
:1030E000ECE1FB681B8D002B13D10023FB61FB6817
:1030F0001B685B69FB61FB681B689B69FB61FB6983
:10310000FB681B681A68FB681B6842F400721A604F
:10311000C0E1FB681B8D012B1ED1FB681B681A6880
:10312000FB681B6822F480621A6072B600BF00233D
:10313000BB61FB681B685B69BB61FB681B689B69C3
:10314000BB61BB69FB681B681A68FB681B6842F4BB
:1031500000721A6062B635E0FB681B8D022B1ED12F
:10316000FB681B681A68FB681B6842F400621A60FF
:1031700072B600BF00237B61FB681B685B697B61E3
:10318000FB681B689B697B617B69FB681B681A682D
:10319000FB681B6822F480621A6062B612E0FB686A
:1031A0001B681A68FB681B6842F480621A6000237F
:1031B0003B61FB681B685B693B61FB681B689B6943
:1031C0003B613B6966E1FB681B8D032B00F21F81AD
:1031D000FB681B8D012B23D17A6AB96BF86800F06C
:1031E00039FC0346002B01D0012367E1FB681B6813
:1031F0001A69FB685B6AD2B21A70FB685B6A5A1C78
:10320000FB685A62FB681B8D013B9AB2FB681A850A
:10321000FB685B8D9BB2013B9AB2FB685A8539E132
:10322000FB681B8D022B52D17B6A0093BB6B002283
:103230000649F86800F0B6FA0346002B08D00123CF
:103240003CE100BF020010000000FFFF040001008D
:1032500072B600BFFB681B681A68FB681B6842F403
:1032600000721A60FB681B681A69FB685B6AD2B25D
:103270001A70FB685B6A5A1CFB685A62FB681B8DFC
:10328000013B9AB2FB681A85FB685B8D9BB2013BE0
:103290009AB2FB685A8562B600BFFB681B681A6960
:1032A000FB685B6AD2B21A70FB685B6A5A1CFB68E7
:1032B0005A62FB681B8D013B9AB2FB681A85FB685A
:1032C0005B8D9BB2013B9AB2FB685A85E2E07B6A58
:1032D0000093BB6B00227B49F86800F063FA034659
:1032E000002B01D00123E9E0FB681B681A68FB682A
:1032F0001B6822F480621A6072B600BFFB681B680C
:103300001A69FB685B6AD2B21A70FB685B6A5A1C66
:10331000FB685A62FB681B8D013B9AB2FB681A85F9
:10332000FB685B8D9BB2013B9AB2FB685A85664B8A
:103330001B68DB08654AA2FB03231A0A13469B009D
:103340001344DA00D31A3B623B6A013B3B623B6A9F
:10335000002B18D1FB6800221A63FB68202283F837
:103360003D20FB68002283F83E20FB681B6C43F085
:103370002002FB681A6462B600BFFB68002283F873
:103380003C2001239AE0FB681B685B6903F004039F
:10339000042BD9D1FB681B681A68FB681B6842F4D0
:1033A00000721A60FB681B681A69FB685B6AD2B21C
:1033B0001A70FB685B6A5A1CFB685A62FB681B8DBB
:1033C000013B9AB2FB681A85FB685B8D9BB2013B9F
:1033D0009AB2FB685A8562B600BFFB681B681A691F
:1033E000FB685B6AD2B21A70FB685B6A5A1CFB68A6
:1033F0005A62FB681B8D013B9AB2FB681A85FB6819
:103400005B8D9BB2013B9AB2FB685A8542E07A6AB7
:10341000B96BF86800F01EFB0346002B01D00123B6
:103420004CE0FB681B681A69FB685B6AD2B21A70D1
:10343000FB685B6A5A1CFB685A62FB681B8D013B88
:103440009AB2FB681A85FB685B8D9BB2013B9AB20E
:10345000FB685A85FB681B685B6903F00403042B57
:1034600018D1FB681B681A69FB685B6AD2B21A70D4
:10347000FB685B6A5A1CFB685A62FB681B8D013B48
:103480009AB2FB681A85FB685B8D9BB2013B9AB2CE
:10349000FB685A85FB681B8D002B7FF494AEFB689C
:1034A000202283F83D20FB68002283F83E20FB6841
:1034B000002283F83C20002300E00223184628372E
:1034C000BD4680BD040001000000002089B5F8144D
:1034D00080B588B002AFF8607A603B600B467B81B4
:1034E000FB68DB6A7B617B69082B06D07B69012B5B
:1034F00003D07B6913F5803F08D1FB681B681A680D
:10350000FB681B6842F480721A600BE0FB681B6B5F
:10351000122B07D1FB681B681A68FB681B6842F412
:1035200080721A603B6800937B6800224FF00111A3
:10353000F86800F037F90346002B0DD0FB681B68D4
:103540001B6803F48073B3F5807F03D1FB684FF4ED
:1035500000721A64032335E0FB681B69B3F5804FE2
:1035600008D17B89DBB21A46FB681B6802F0FE02B9
:103570001A611BE07B89DB11DBB203F00603DBB2CF
:1035800063F00F03DAB2FB681B681A613B687A6864
:103590000E49F86800F05DF90346002B01D00123C5
:1035A00010E07B89DAB2FB681B681A613B687A68B5
:1035B0000749F86800F04DF90346002B01D00123BC
:1035C00000E0002318461837BD4680BD0800010002
:1035D0000200010080B588B002AFF86008461146CD
:1035E0001A4603467B810B463B811346FB80FB68F2
:1035F0001B681A68FB681B6842F480621A60FB68EB
:103600001B681A68FB681B6842F480721A607B6A48
:1036100000933B6A00224FF00111F86800F0C2F8F5
:103620000346002B0DD0FB681B681B6803F48073F6
:10363000B3F5807F03D1FB684FF400721A64032353
:10364000AAE07B89DBB21A46FB681B6802F0FE0227
:103650001A617B6A3A6A5249F86800F0FAF8034640
:10366000002B01D0012397E000237B61FB681B68DE
:103670005B697B61FB681B689B697B617B697A6A1C
:10368000396AF86800F064F90346002B0DD0FB6836
:103690001B6C042B07D1FB681B681A68FB681B684E
:1036A00042F400721A60012376E0FB88012B05D1F9
:1036B0003B89DAB2FB681B681A6121E03B891B0A6F
:1036C0009BB2DAB2FB681B681A617A6A396AF868D9
:1036D00000F03EF90346002B0DD0FB681B6C042B59
:1036E00007D1FB681B681A68FB681B6842F400720C
:1036F0001A60012350E03B89DAB2FB681B681A614B
:103700007A6A396AF86800F023F90346002B0DD075
:10371000FB681B6C042B07D1FB681B681A68FB68ED
:103720001B6842F400721A60012335E0FB681B68D5
:103730001A68FB681B6842F480721A607B6A009307
:103740003B6A00224FF00111F86800F02BF80346A5
:10375000002B0DD0FB681B681B6803F48073B3F566
:10376000807F03D1FB684FF400721A64032313E0D7
:103770007B89DBB243F00103DAB2FB681B681A6194
:103780007B6A3A6A0649F86800F063F80346002B42
:1037900001D0012300E0002318461837BD4680BD44
:1037A0000200010080B584B000AFF860B9603B60F2
:1037B0001346FB7125E03B68B3F1FF3F21D0FEF7D4
:1037C00025FE0246BB69D31A3A689A4202D33B6887
:1037D000002B16D1FB6800221A63FB68202283F8B5
:1037E0003D20FB68002283F83E20FB681B6C43F001
:1037F0002002FB681A64FB68002283F83C20012346
:1038000023E0BB681B0CDBB2012B0DD1FB681B68EE
:103810005B69DA43BB6813409BB2002B0CBF0123EA
:103820000023DBB21A460CE0FB681B689B69DA4395
:10383000BB6813409BB2002B0CBF01230023DBB2FB
:103840001A46FB799A42B6D0002318461037BD4677
:1038500080BD80B584B000AFF860B9607A603B602D
:1038600051E0FB681B685B6903F48063B3F5806F0C
:1038700023D1FB681B681A68FB681B6842F400725E
:103880001A60FB681B686FF480625A61FB68002253
:103890001A63FB68202283F83D20FB68002283F82E
:1038A0003E20FB681B6C43F00402FB681A64FB6853
:1038B000002283F83C20012346E07B68B3F1FF3F00
:1038C00021D0FEF7A3FD02463B68D31A7A689A42DC
:1038D00002D37B68002B16D1FB6800221A63FB68B9
:1038E000202283F83D20FB68002283F83E20FB68FD
:1038F0001B6C43F02002FB681A64FB68002283F80B
:103900003C20012320E0BB681B0CDBB2012B0CD157
:10391000FB681B685B69DA43BB6813409BB2002BF2
:1039200014BF01230023DBB20BE0FB681B689B691B
:10393000DA43BB6813409BB2002B14BF0123002362
:10394000DBB2002B8DD1002318461037BD4680BD59
:1039500080B584B000AFF860B9607A602DE0F86897
:1039600000F0CEF80346002B01D001232DE0BB6808
:10397000B3F1FF3F21D0FEF749FD02467B68D31A21
:10398000BA689A4202D3BB68002B16D1FB680022AA
:103990001A63FB68202283F83D20FB68002283F82D
:1039A0003E20FB681B6C43F02002FB681A64FB6836
:1039B000002283F83C20012307E0FB681B685B6959
:1039C00003F08003802BCAD1002318461037BD4670
:1039D00080BD80B584B000AFF860B9607A602DE03A
:1039E000F86800F08DF80346002B01D001232DE08C
:1039F000BB68B3F1FF3F21D0FEF708FD02467B68AC
:103A0000D31ABA689A4202D3BB68002B16D1FB685E
:103A100000221A63FB68202283F83D20FB68002205
:103A200083F83E20FB681B6C43F02002FB681A649D
:103A3000FB68002283F83C20012307E0FB681B6839
:103A40005B6903F00403042BCAD100231846103726
:103A5000BD4680BD80B584B000AFF860B9607A60C3
:103A600042E0FB681B685B6903F01003102B19D15F
:103A7000FB681B686FF010025A61FB6800221A6332
:103A8000FB68202283F83D20FB68002283F83E205B
:103A9000FB681A6CFB681A64FB68002283F83C2000
:103AA000012329E0FEF7B2FC02467B68D31ABA680C
:103AB0009A4202D3BB68002B16D1FB6800221A631E
:103AC000FB68202283F83D20FB68002283F83E201B
:103AD000FB681B6C43F02002FB681A64FB68002241
:103AE00083F83C20012307E0FB681B685B6903F057
:103AF0004003402BB5D1002318461037BD4680BD8A
:103B000080B483B000AF78607B681B685B6903F4A6
:103B10008063B3F5806F1BD17B681B686FF4806294
:103B20005A617B6800221A637B68202283F83D205B
:103B30007B68002283F83E207B681B6C43F0040204
:103B40007B681A647B68002283F83C20012300E034
:103B5000002318460C37BD4680BC704780B586B040
:103B600000AF78607B68002B01D1012372E27B6893
:103B70001B6803F00103002B00F08780924B5B6809
:103B800003F00C03042B0CD08F4B5B6803F00C0389
:103B9000082B12D18C4B5B6803F48033B3F5803F64
:103BA0000BD1894B1B6803F40033002B6CD07B686E
:103BB0005B68002B68D101234CE27B685B68B3F53E
:103BC000803F06D1804B1B687F4A43F480331360EB
:103BD0002EE07B685B68002B0CD17B4B1B687A4A1C
:103BE00023F480331360784B1B68774A23F48023D7
:103BF00013601DE07B685B68B3F5A02F0CD1724B9E
:103C00001B68714A43F4802313606F4B1B686E4A34
:103C100043F4803313600BE06B4B1B686A4A23F458
:103C200080331360684B1B68674A23F4802313605A
:103C30007B685B68002B13D0FEF7E8FB386108E077
:103C4000FEF7E4FB02463B69D31A642B01D9032338
:103C500000E25D4B1B6803F40033002BF0D014E04E
:103C6000FEF7D4FB386108E0FEF7D0FB02463B6963
:103C7000D31A642B01D90323ECE1534B1B6803F4E3
:103C80000033002BF0D100E000BF7B681B6803F01D
:103C90000203002B63D04C4B5B6803F00C03002B3A
:103CA0000BD0494B5B6803F00C03082B1CD1464B2F
:103CB0005B6803F48033002B16D1434B1B6803F081
:103CC0000203002B05D07B681B69012B01D0012367
:103CD000C0E13D4B1B6823F0F8027B685B69DB00A9
:103CE000394913430B603AE07B681B69002B20D0F5
:103CF000364B01221A60FEF789FB386108E0FEF7B7
:103D000085FB02463B69D31A022B01D90323A1E1AB
:103D10002D4B1B6803F00203002BF0D02A4B1B68CD
:103D200023F0F8027B685B69DB00274913430B60D3
:103D300015E0264B00221A60FEF768FB386108E0A8
:103D4000FEF764FB02463B69D31A022B01D9032319
:103D500080E11D4B1B6803F00203002BF0D17B6850
:103D60001B6803F00803002B3AD07B689B69002B8B
:103D700019D0174B01221A60FEF748FB386108E0A2
:103D8000FEF744FB02463B69D31A022B01D90323F9
:103D900060E10D4B5B6A03F00203002BF0D00120C1
:103DA00000F0D8FA1CE00A4B00221A60FEF72EFB46
:103DB00038610FE0FEF72AFB02463B69D31A022B5B
:103DC00008D9032346E100BF001002400000424230
:103DD00080044242924B5B6A03F00203002BE9D15C
:103DE0007B681B6803F00403002B00F0A68000230F
:103DF000FB758B4BDB6903F08053002B0DD1884B97
:103E0000DB69874A43F08053D361854BDB6903F05C
:103E10008053BB60BB680123FB75824B1B6803F4B6
:103E20008073002B18D17F4B1B687E4A43F480734C
:103E30001360FEF7EBFA386108E0FEF7E7FA024696
:103E40003B69D31A642B01D9032303E1754B1B682B
:103E500003F48073002BF0D07B68DB68012B06D164
:103E60006F4B1B6A6E4A43F0010313622DE07B68BF
:103E7000DB68002B0CD16A4B1B6A694A23F00103F3
:103E80001362674B1B6A664A23F0040313621CE04B
:103E90007B68DB68052B0CD1614B1B6A604A43F0E1
:103EA000040313625E4B1B6A5D4A43F00103136215
:103EB0000BE05B4B1B6A5A4A23F001031362584B19
:103EC0001B6A574A23F0040313627B68DB68002BEC
:103ED00015D0FEF79BFA38610AE0FEF797FA024622
:103EE0003B69D31A41F28832934201D90323B1E0EE
:103EF0004B4B1B6A03F00203002BEED014E0FEF7DD
:103F000085FA38610AE0FEF781FA02463B69D31A66
:103F100041F28832934201D903239BE0404B1B6A54
:103F200003F00203002BEED1FB7D012B05D13C4BAE
:103F3000DB693B4A23F08053D3617B68DB69002B4C
:103F400000F08780364B5B6803F00C03082B61D0D0
:103F50007B68DB69022B46D1334B00221A60FEF7E7
:103F600055FA386108E0FEF751FA02463B69D31A68
:103F7000022B01D903236DE0294B1B6803F000736A
:103F8000002BF0D17B681B6AB3F5803F08D1244B2E
:103F90005B6823F400327B689B68214913434B60C4
:103FA0001F4B5B6823F474127B68196A7B685B6A39
:103FB0000B431B4913434B601B4B01221A60FEF756
:103FC00025FA386108E0FEF721FA02463B69D31A68
:103FD000022B01D903233DE0114B1B6803F0007352
:103FE000002BF0D035E0104B00221A60FEF70EFADD
:103FF000386108E0FEF70AFA02463B69D31A022B41
:1040000001D9032326E0064B1B6803F00073002B45
:10401000F0D11EE07B68DB69012B07D1012319E099
:104020000010024000700040600042420B4B5B6891
:10403000FB60FB6803F480327B681B6A9A4206D1FE
:10404000FB6803F470127B685B6A9A4201D001231B
:1040500000E0002318461837BD4680BD001002401E
:1040600080B584B000AF786039607B68002B01D1E7
:104070000123D0E06A4B1B6803F007033A689A42B9
:1040800010D9674B1B6823F0070265493B6813434F
:104090000B60634B1B6803F007033A689A4201D038
:1040A0000123B8E07B681B6803F00203002B20D0DB
:1040B0007B681B6803F00403002B05D0594B5B6839
:1040C000584A43F4E06353607B681B6803F00803BD
:1040D000002B05D0534B5B68524A43F46053536046
:1040E000504B5B6823F0F0027B689B684D4913439B
:1040F0004B607B681B6803F00103002B40D07B689A
:104100005B68012B07D1474B1B6803F40033002B7E
:1041100015D101237FE07B685B68022B07D1414BFF
:104120001B6803F00073002B09D1012373E03D4BA2
:104130001B6803F00203002B01D101236BE0394B14
:104140005B6823F003027B685B68364913434B606E
:10415000FEF75CF9F8600AE0FEF758F90246FB68E2
:10416000D31A41F28832934201D9032353E02D4BF5
:104170005B6803F00C027B685B689B009A42EBD1A2
:10418000274B1B6803F007033A689A4210D2244B6E
:104190001B6823F0070222493B6813430B60204B46
:1041A0001B6803F007033A689A4201D0012332E00A
:1041B0007B681B6803F00403002B08D0194B5B6875
:1041C00023F4E0627B68DB68164913434B607B682D
:1041D0001B6803F00803002B09D0124B5B6823F423
:1041E00060527B681B69DB000E4913434B6000F093
:1041F00021F802460B4B5B681B0903F00F030A49C9
:10420000CB5C22FA03F3094A1360094B1B6818467A
:10421000FEF7BAF8002318461037BD4680BD00BF30
:104220000020024000100240147C00080000002022
:104230001000002090B48AB000AF294B3C1D0FCB7A
:1042400084E80F0040F201233B800023FB61002340
:10425000BB6100237B6200237B6100233B62214B17
:104260005B68FB61FB6903F00C03042B02D0082B95
:1042700003D02BE01C4B3B622BE0FB699B0C03F053
:104280000F0328333B4413F8243C7B61FB6903F4A0
:104290008033002B12D0134B5B685B0C03F00103DF
:1042A00028333B4413F8283CBB617B690E4A03FB6F
:1042B00002F2BB69B2FBF3F37B6204E07B690B4A59
:1042C00002FB03F37B627B6A3B6202E0064B3B62CC
:1042D00000BF3B6A18462837BD4690BC704700BFF8
:1042E000047C00080010024000127A0000093D0022
:1042F00080B400AF024B1B681846BD4680BC7047B7
:104300000000002080B500AFFFF7F2FF0246054B2A
:104310005B681B0A03F007030349CB5C22FA03F333
:10432000184680BD00100240247C000880B500AF14
:10433000FFF7DEFF0246054B5B68DB0A03F007036D
:104340000349CB5C22FA03F3184680BD00100240FB
:10435000247C000880B485B000AF78600A4B1B68ED
:104360000A4AA2FB03235B0A7A6802FB03F3FB60A1
:1043700000BFFB685A1EFA60002BF9D100BF00BFD6
:104380001437BD4680BC704700000020D34D62103A
:1043900080B582B000AF78607B68002B01D101232B
:1043A0003FE07B6893F83D30DBB2002B06D17B68A1
:1043B000002283F83C207868FDF7ECFC7B6824221F
:1043C00083F83D207B681B68DA687B681B6822F4F1
:1043D0000052DA60786800F025FC7B681B681A6977
:1043E0007B681B6822F490421A617B681B685A69DB
:1043F0007B681B6822F02A025A617B681B68DA68B6
:104400007B681B6842F40052DA607B6800221A6401
:104410007B68202283F83D207B68202283F83E20A1
:10442000002318460837BD4680BD80B58AB002AF6C
:10443000F860B9603B601346FB8000237B61FB683A
:1044400093F83D30DBB2202B7CD1BB68002B02D02F
:10445000FB88002B01D1012375E0FB6893F83C3009
:10446000012B01D102236EE0FB68012283F83C207E
:10447000FB6800221A64FB68212283F83D20FDF7C7
:10448000C5FF7861FB68FA889A84FB68FA88DA8449
:10449000FB689B68B3F5805F08D1FB681B69002B44
:1044A00004D10023FB61BB68BB6103E0BB68FB6117
:1044B0000023BB61FB68002283F83C202AE03B68B4
:1044C00000937B6900228021F86800F011FA03460E
:1044D000002B01D0032336E0FB69002B0BD1BB6915
:1044E0001B881A46FB681B68C2F308025A60BB6946
:1044F0000233BB6107E0FB691A78FB681B685A60EE
:10450000FB690133FB61FB68DB8C9BB2013B9AB218
:10451000FB68DA84FB68DB8C9BB2002BCFD13B6855
:1045200000937B6900224021F86800F0E1F903461E
:10453000002B01D0032306E0FB68202283F83D20F6
:10454000002300E0022318462037BD4680BD00004E
:1045500080B58AB000AF78607B681B681B687B629F
:104560007B681B68DB683B627B681B685B69FB617F
:104570000023BB6100237B617B6A03F00F03BB61F7
:10458000BB69002B0DD17B6A03F02003002B08D000
:104590003B6A03F02003002B03D0786800F099FAFF
:1045A0007BE1BB69002B00F0B180FB6903F00103E4
:1045B000002B05D13B6A03F49073002B00F0A6801A
:1045C0007B6A03F00103002B0AD03B6A03F480737B
:1045D000002B05D07B681B6C43F001027B681A64DA
:1045E0007B6A03F00403002B0AD0FB6903F001038C
:1045F000002B05D07B681B6C43F002027B681A64B9
:104600007B6A03F00203002B0AD0FB6903F001036D
:10461000002B05D07B681B6C43F004027B681A6496
:104620007B6A03F00803002B0FD03B6A03F02003E2
:10463000002B04D1FB6903F00103002B05D07B683C
:104640001B6C43F008027B681A647B681B6C002BB0
:1046500000F01E817B6A03F02003002B07D03B6A29
:1046600003F02003002B02D0786800F032FA7B6858
:104670001B685B6903F04003002B14BF0123002378
:10468000DBB27B617B681B6C03F00803002B02D15B
:104690007B69002B31D0786800F074F97B681B6867
:1046A0005B6903F04003002B23D07B681B685A69C9
:1046B0007B681B6822F040025A617B689B6B002B71
:1046C00013D07B689B6B764A5A637B689B6B18465A
:1046D000FEF712F80346002B16D07B689B6B5B6BD2
:1046E0007A68926B104698470EE0786800F0ECF814
:1046F0000AE0786800F0E8F806E0786800F0E4F88E
:104700007B6800221A64C3E000BFC1E07B681B6BBA
:10471000012B40F0A1807B6A03F01003002B00F016
:104720009B803B6A03F01003002B00F09580002370
:10473000FB607B681B681B68FB607B681B685B68B1
:10474000FB60FB687B681B685B6903F04003002B20
:104750004ED07B689B6B1B685B683B823B8A002B5F
:1047600000F098807B689B8D3A8A9A4280F0928014
:104770007B683A8ADA857B689B6B9B69202B2BD000
:104780007B681B68DA687B681B6822F48072DA60D9
:104790007B681B685A697B681B6822F001025A61BA
:1047A0007B681B685A697B681B6822F040025A616B
:1047B0007B68202283F83E207B6800221A637B6896
:1047C0001B68DA687B681B6822F01002DA607B687D
:1047D0009B6B1846FDF755FF7B689A8D7B68DB8DD8
:1047E0009BB2D31A9BB21946786800F076F851E074
:1047F0007B689A8D7B68DB8D9BB2D31A7B827B684A
:10480000DB8D9BB2002B47D07B8A002B44D07B688A
:104810001B68DA687B681B6822F49072DA607B6838
:104820001B685A697B681B6822F001025A617B6829
:10483000202283F83E207B6800221A637B681B6875
:10484000DA687B681B6822F01002DA607B8A1946FE
:10485000786800F042F81FE07B6A03F08003002BC9
:1048600008D03B6A03F08003002B03D0786800F087
:10487000C9F812E07B6A03F04003002B0DD03B6ABD
:1048800003F04003002B08D0786800F00AF904E038
:1048900000BF02E000BF00E000BF2837BD4680BD7A
:1048A000DD49000880B483B000AF786000BF0C37EA
:1048B000BD4680BC704780B483B000AF786000BF55
:1048C0000C37BD4680BC704780B483B000AF7860C1
:1048D00000BF0C37BD4680BC704780B483B000AFCA
:1048E00078600B467B8000BF0C37BD4680BC7047AC
:1048F00080B584B000AFF860B9603B601346FB71CF
:104900002CE0BB69B3F1FF3F28D0BB69002B07D077
:10491000FDF77CFD02463B68D31ABA699A421DD264
:10492000FB681B68DA68FB681B6822F4D072DA60E7
:10493000FB681B685A69FB681B6822F001025A6118
:10494000FB68202283F83D20FB68202283F83E206C
:10495000FB68002283F83C2003230FE0FB681B6800
:104960001A68BB681340BA689A420CBF012300233F
:10497000DBB21A46FB799A42C3D00023184610379F
:10498000BD4680BD80B483B000AF78607B681B6893
:10499000DA687B681B6822F49072DA607B681B68B7
:1049A0005A697B681B6822F001025A617B681B6BA5
:1049B000012B07D17B681B68DA687B681B6822F0D3
:1049C0001002DA607B68202283F83E207B68002298
:1049D0001A6300BF0C37BD4680BC704780B584B0F9
:1049E00000AF78607B685B6AFB60FB680022DA8559
:1049F000FB680022DA84F868FFF766FF00BF103713
:104A0000BD4680BD80B485B000AF78607B6893F808
:104A10003D30DBB2212B3ED17B689B68B3F5805FD4
:104A200014D17B681B69002B10D17B681B6AFB606B
:104A3000FB681B881A467B681B68C2F308025A6031
:104A40007B681B6A9A1C7B681A6208E07B681B6A99
:104A5000591C7A6811621A787B681B685A607B68F7
:104A6000DB8C9BB2013B9BB27A681946D184002B48
:104A70000FD17B681B68DA687B681B6822F08002B4
:104A8000DA607B681B68DA687B681B6842F040026A
:104A9000DA60002300E0022318461437BD4680BCCC
:104AA000704780B582B000AF78607B681B68DA68B9
:104AB0007B681B6822F04002DA607B68202283F862
:104AC0003D207868FFF7EEFE002318460837BD4604
:104AD00080BD80B586B000AF78607B6893F83E30CB
:104AE000DBB2222B40F099807B689B68B3F5805F36
:104AF00017D17B681B69002B13D100237B617B6876
:104B00009B6A3B617B681B685B689BB2C3F30803CD
:104B10009AB23B691A807B689B6A9A1C7B689A628E
:104B200026E07B689B6A7B6100233B617B689B6816
:104B3000B3F5805F07D07B689B68002B0AD17B6848
:104B40001B69002B06D17B681B685B68DAB27B6946
:104B50001A7008E07B681B685B68DBB203F07F03B8
:104B6000DAB27B691A707B689B6A5A1C7B689A620E
:104B70007B68DB8D9BB2013B9BB27A681946D1857D
:104B8000002B48D17B681B68DA687B681B6822F0C1
:104B90002002DA607B681B68DA687B681B6822F495
:104BA0008072DA607B681B685A697B681B6822F038
:104BB00001025A617B68202283F83E207B681B6BD0
:104BC000012B23D17B6800221A637B681B68DA689B
:104BD0007B681B6822F01002DA607B681B681B6828
:104BE00003F01003102B0AD10023FB607B681B68C5
:104BF0001B68FB607B681B685B68FB60FB687B680D
:104C00009B8D19467868FFF768FE02E07868FFF729
:104C100052FE002302E0002300E00223184618376A
:104C2000BD4680BD80B584B000AF78607B681B68EE
:104C30001B6923F440517B68DA687B681B680A4370
:104C40001A617B689A687B681B691A437B685B6999
:104C50001343BB607B681B68DB6823F4B05323F00D
:104C60000C037A681268B9680B43D3607B681B68D1
:104C70005B6923F440717B689A697B681B680A430F
:104C80005A617B681B682C4A934203D1FFF74EFBA5
:104C9000F86002E0FFF736FBF860FA6813469B0005
:104CA00013449A001A447B685B689B00B2FBF3F3E1
:104CB000224AA2FB03235B091901FA6813469B00F1
:104CC00013449A001A447B685B689B00B2FBF3F2C2
:104CD0001A4BA3FB02035B09642000FB03F3D31A06
:104CE0001B013233154AA2FB03235B0903F0F003D7
:104CF0001944FA6813469B0013449A001A447B68CF
:104D00005B689B00B2FBF3F20C4BA3FB02035B0955
:104D1000642000FB03F3D31A1B013233074AA2FBC2
:104D200003235B0903F00F027B681B680A449A6047
:104D300000BF1037BD4680BD003801401F85EB51D4
:104D4000014B1868704700BF1800002070B500269E
:104D50000C4D0D4C641BA410A64209D102F0FCFEC0
:104D600000260A4D0A4C641BA410A64205D170BD52
:104D700055F8043B98470136EEE755F8043B984751
:104D80000136F2E70480000804800008048000086F
:104D90000880000803460244934200D1704703F89C
:104DA000011BF9E7002B2DE9F0471F46BBBF03F1BC
:104DB00000431F4600232D2388B01446129A109DED
:104DC0001370149BDDF84CA023F02008B8F1460FB7
:104DD00005D0B8F1450F00D10135022300E00323CF
:104DE00007AA049206AACDE902A2CDE9003522461F
:104DF0003B4600F0E5FCB8F1470F064602D1119B97
:104E0000DB0722D5B8F1460F06EB050910D1337840
:104E1000302B0AD10022002320463946FBF7C4FD7F
:104E200018B9C5F10105CAF80050DAF80030994404
:104E30000022002320463946FBF7B6FD08B1CDF825
:104E40001C903022079B4B4507D33046079B159A91
:104E50009B1B136008B0BDE8F087591C07911A70BE
:104E6000F0E70346F7B5002903F8022BB6BF2D2261
:104E70002B224942092942702BDD0DF10704A4467B
:104E80000A2791FBF7F60A46A64607FB1615632A82
:104E900005F13005314604F1FF340EF8015CF0DC19
:104EA0003031AEF1020504F8011C2946441C61456D
:104EB0000AD30DF10902A2EB0E02654588BF00225C
:104EC0001344181A03B0F0BD11F8012B04F8012F98
:104ED000EDE7302330318370C170031DF1E700002E
:104EE0002DE9F04F91B00C46DDF8688016461F465C
:104EF000054601F053FA036818460993FBF728F9B1
:104F000000230E93D8F800300A90073323F00703EC
:104F100003F1080294F81890D4F800B0C8F8002003
:104F2000D3E90023C4E91223D4E9128A2AF000430A
:104F30000B934FF0FF3240469C4B0B99FBF766FDFD
:104F400070BB4FF0FF324046984B0B99FBF740FD8A
:104F500030BB0022002340465146FBF72FFD10B125
:104F60002D2384F84330924B9248B9F1470F94BFF8
:104F70009846804603234FF0000A23612BF0040378
:104F8000236033462146284600970FAA00F0D4F943
:104F9000013040F090804FF0FF3011B0BDE8F08F4D
:104FA0004246534640465146FBF730FD48B1BAF100
:104FB000000FB8BF2D238048B8BF84F843307F4B23
:104FC000D3E7636809F0DF015A1C42D1062363600E
:104FD000002206920EAACDE904920DAA4BF480633A
:104FE00003920DF13302CDE901322360636842463A
:104FF0000093284653460B91FFF7D4FE0B99804649
:1050000047290D9908D1C81C02DB6368994240DD2D
:10501000A9F102095FFA89F9B9F1650F1FD84A466B
:10502000013904F150000D91FFF71BFF0E9A8246E3
:105030001318012A236102DC2268D20701D501334B
:1050400023619DF83330002B9BD02D2384F843300F
:1050500097E74729BCD1002BBAD10123B7E7B9F1B3
:10506000660F18D1002963680BDD216113B922682E
:10507000D00702D501330B4423614FF0000AA1652C
:10508000DFE713B92268D20701D50233F4E7012321
:10509000F2E74FF067090E9B994205DB2368216117
:1050A000D807EAD54B1CE7E70029CCBF0122C1F1A4
:1050B00002021344E0E723685A0507D423694246F5
:1050C00031462846B84701302BD164E7B9F1650F66
:1050D00040F2DD80D4E9120100220023FBF764FCDA
:1050E000002833D0012331462846354AB8470130DD
:1050F0003FF451AFDDE90D239A4202DB2368D80764
:105100000FD5DDE9092331462846B84701303FF481
:1051100042AF4FF0000804F11A090E9B013B4345D2
:1051200009DC23689B0700F10281E0680F9B98422D
:10513000B8BF184631E701234A4631462846B847EA
:1051400001303FF428AF08F10108E6E70D9B002B82
:1051500038DC012331462846194AB84701303FF46C
:105160001AAFDDE90D23134302D12368D907D8D53F
:10517000DDE9092331462846B84701303FF40BAF3B
:105180004FF0000904F11A0A0D9B5B424B4501DC0C
:105190000E9B94E70123524631462846B84701301A
:1051A0003FF4F9AE09F10109EEE700BFFFFFEF7F21
:1051B000307C0008347C00083C7C0008387C000807
:1051C000407C00080E9AA36D9A42A8BF1A46002A96
:1051D000914637DC4FF0000B29EAE97904F11A0215
:1051E000D4F858A0AAEB09035B4533DCDDE90D23B5
:1051F0009A423BDB2368DA0738D40E9B0D99A3EB68
:105200000A02A3EB01099145A8BF9146B9F1000F2D
:1052100034DC4FF0000829EAE97904F11A0ADDE9E3
:105220000D239B1AA3EB090343457FF77AAF0123B4
:10523000524631462846B84701303FF4ACAE08F13B
:105240000108ECE71346314642462846B84701308C
:10525000C0D1A0E60123314628460B92B847013061
:105260003FF499AE0B9A0BF1010BB9E73146DDE93A
:1052700009232846B8470130BFD18CE64B4631465A
:10528000284608EB0A02B8470130C2D183E60E9ADD
:10529000012A01DCDB0737D5012342463146284687
:1052A000B84701303FF477AEDDE90923314628469F
:1052B000B84701303FF46FAED4E912010022002359
:1052C000FBF772FBD8B90E9B08F10102013B314696
:1052D0002846B84701300ED15DE601234A463146E3
:1052E0002846B84701303FF456AE08F101080E9B3E
:1052F000013B4345F1DC534604F15002E0E64FF038
:10530000000804F11A09F2E701234246DFE701230E
:105310004A4631462846B84701303FF43CAE08F1D2
:105320000108E3680F995B1A4345F0DCFDE64FF096
:10533000000804F11909F4E72DE9F04716469946EB
:105340008A680B6907469342B8BF1346336091F8E9
:1053500043200C46DDF820800AB101333360236816
:10536000990642BF336802333360256815F006059D
:1053700006D104F1190AE36832689B1AAB4228DCB3
:1053800094F84320131E226818BF012392062DD4DF
:105390004946384604F14302C047013020D0236813
:1053A000E56803F00603042B18BF002532684FF0B0
:1053B0000006A36808BFAD1A226908BF25EAE57593
:1053C0009342C4BF9B1AED181A34B5421AD100207B
:1053D00008E00123524649463846C047013003D110
:1053E0004FF0FF30BDE8F0870135C4E73020E11809
:1053F00081F843005A1C94F845102244023382F885
:105400004310C5E70123224649463846C0470130CC
:10541000E6D00136D9E700002DE9FF470F7E91461F
:10542000782F80460C469A460C9D01F1430207D81E
:10543000622F0AD8002F00F0D980582F00F0A480E6
:1054400004F1420584F842703AE0A7F16303152B9A
:10545000F6D801A151F823F0B1540008C554000852
:1054600041540008415400084154000841540008C8
:10547000C554000841540008415400084154000834
:1054800041540008D3550008F5540008B5550008EC
:105490004154000841540008F555000841540008E3
:1054A000F55400084154000841540008BD55000857
:1054B0002B681A1D1B682A6004F1420584F84230EB
:1054C0000123A4E020682968060601F104030AD537
:1054D0000E682B60002E03DA2D23764284F84330C9
:1054E0000A235E4819E00E6810F0400F2B6018BFC9
:1054F00036B2EFE72B682068191D2960010601D537
:105500001E6802E04606FBD51E886F2F0CBF0823DD
:105510000A235248002184F843106568002DA8BF73
:105520002168A560A4BF21F0040121600EB9002DFF
:105530004DD01546B6FBF3F103FB1167C75D05F8C7
:10554000017D3746BB420E46F4D9082B0BD12368A8
:10555000DE0708D5236961689942DEBF302305F86C
:10556000013C05F1FF35521B22614B462146404666
:10557000CDF800A003AAFFF7DFFE01304CD14FF0B9
:10558000FF3004B0BDE8F087344881F845702968E1
:10559000236851F8046B29601D0614D5DF0744BF4A
:1055A00043F0200323601EB9236823F02003236007
:1055B0001023AFE7236843F02003236078232848B3
:1055C00084F84530E3E7590648BFB6B2E6E715462A
:1055D000BBE72B682668181D6169286035061B68C3
:1055E00001D5196002E07006FBD51980002315462D
:1055F0002361BAE72B6800211A1D2A601D686268C2
:10560000284600F0D7FE08B1401B60606368236144
:10561000002384F84330A8E72A46494640462369D8
:10562000D0470130ABD023689B0713D4E068039BBD
:105630009842B8BF1846A4E701233246494640467F
:10564000D04701309BD00135E36803995B1AAB4228
:10565000F2DCEBE7002504F11906F5E7427C0008CF
:10566000537C00080EB46FF0004100B59CB01DAB38
:1056700002900690079104910848094953F8042BB9
:105680000591006802A9019301F07EFB0022029BB4
:105690001A701CB05DF804EB03B0704718000020CE
:1056A0000802FFFF2DE9F74F03690C690746A34283
:1056B000C0F28280013C00F1140501F1140805EBF1
:1056C0008403019358F8243055F8242001339A427A
:1056D000B2FBF3F64FEA840B08EB840931D34FF0A9
:1056E000000E4046AC46F24650F8042B93B206FB3F
:1056F00003E3120C4FEA134E9BB206FB02E2AAEB45
:105700000303DCF800A04FEA124E1FFA8AFA534452
:10571000DCF800A092B2C2EB1A4202EB23429BB229
:1057200043EA024381454FEA224A4CF8043BDBD26C
:1057300055F80B302BB9019B043B9D421A462FD3E1
:105740003C61384601F0D0F8002825DB28464FF0B0
:10575000000C013658F8041BD0F800E08BB2ACEB1B
:1057600003031FFA8EF213440A0CC2EB1E4202EB33
:1057700023429BB243EA0243C1454FEA224C40F820
:10578000043BE7D255F8242005EB840322B9043BFF
:105790009D421A460AD33C61304603B0BDE8F08F03
:1057A0001268043B002ACBD1013CC6E71268043BD7
:1057B000002AF0D1013CEBE70020EEE700000000FA
:1057C0002DE9F04F16461F46446A99B00546CDE9CB
:1057D0000467DDF8948074B9102000F0E3FD024600
:1057E000686220B9EA21A84BA84801F0DDFBC0E9B6
:1057F00001440460C4606B6A196851B15A6801239E
:1058000093404A608B60284600F030FE00226B6AAD
:105810001A603B1EAFBF0023012223F00043059313
:10582000A8BFC8F80030DDF81490994BB8BFC8F88D
:10583000002033EA090319D142F20F73249A13604E
:10584000C9F31303334300F07F85269B53B9914B73
:1058500022E0914B03930833269A1360039819B002
:10586000BDE8F08F8B4B03930333F5E7DDE9043498
:10587000CDE90C34DDE90C0100220023FBF794F89C
:10588000804658B10123249A1360269B002B00F018
:10589000588582481860431E0393DFE716AB0193D7
:1058A00017AB00932846DDE90C2301F0C5F8C9F3D6
:1058B0000A548346002C7FD0DDE90C010D9BA4F235
:1058C000FF34C3F3130343F07F5141F44011CDF88B
:1058D0004C800022724BFAF747FC65A3D3E9002302
:1058E000FAF7FAFD64A3D3E90023FAF73FFC064672
:1058F00020460F46FAF786FD61A3D3E90023FAF7A5
:10590000EBFD02460B4630463946FAF72FFC0646B9
:105910000F46FBF791F800228246002330463946B5
:10592000FBF74CF848B15046FAF76CFD32463B465F
:10593000FBF73AF808B90AF1FF3ABAF1160F58D84E
:10594000DDE90C01574B03EBCA03D3E90023FBF756
:1059500035F800284FD000230AF1FF3A0F93169B29
:105960001C1B631E099349BFC4F101030023069366
:10597000002354BF06930993BAF1000F3DDB099B46
:10598000CDF838A05344099300230A93229B092B96
:1059900000F28C80052BC4BF043B2293229BC8BF1E
:1059A0000024A3F10203D8BF0124032B00F28A8054
:1059B000DFE803F02D4F4D5BDDE916431C4404F294
:1059C0003243202BC3BFC3F1400304F2124009FA53
:1059D00003F3C3F12003C6BF26FA00F0184306FA0A
:1059E00003F0FAF7FFFC0123A1F1F871013C1393D6
:1059F0006FE70123B2E70F90B1E7069BA3EB0A0321
:105A00000693CAF100030A9300230E93BEE7002316
:105A10000B93239B002B58DC4FF001094B46CDF82C
:105A20002090CDF88C900022686A4260042202F136
:105A300014069E4241684ED9284600F0D7FC0390D8
:105A400000284CD102464FF4D571174BCCE6012308
:105A5000DEE700230B93239B0AEB030909F1010303
:105A6000012B0893B8BF0123DDE70123F2E700BF54
:105A700061436F63A787D23FB3C8608B288AC63F54
:105A8000FB799F501344D33F717C0008887C000849
:105A90000000F07F6D7C0008647C0008417C0008F9
:105AA0000000F83F787D0008E37C00080124002313
:105AB0000B9422934FF0FF3900221223CDF820904F
:105AC0002392B0E701230B93F4E7DDF88C904B466B
:105AD000CDF82090A7E7013141605200A7E76B6A3B
